:100000000C9490030C94AD030C94AD030C946729ED
:100010000C94F5120C94AD030C94AD030C94AD0349
:100020000C94AD030C94DD180C94AD030C94EB15FB
:100030000C94AD030C94AD030C94AD030C94AD0380
:100040000C94AD030C94AD030C9466120C9428121E
:100050000C94AD030C94AD030C94AD030C94AD0360
:100060000C94AD030C94AD037B1B7B1B7B1B901B83
:10007000A31BAC1BB51BBE1BC71BDE1BE91BF21B66
:10008000FB1B041C131C241C331C461C551C5E1C2F
:10009000671C701C7B1C084AD73B3BCE016E84BC9E
:1000A000BFFDC12F3D6C74319ABD56833DDA3D00D2
:1000B000C77F11BED9E4BB4C3E916BAAAABE00001B
:1000C00000803F05A84CCDB2D44EB93836A9020CF9
:1000D00050B9918688083CA6AAAA2ABE00000080D2
:1000E0003F3E0D0A002C0057506F733A002C002C35
:1000F0004D506F733A003C436865636B003C416C44
:1001000061726D003C486F6D65003C486F6C640027
:100110003C52756E003C5175657565003C49646CD8
:1001200065000D0A003D00244E005D0D0A002046CA
:1001300000205400204D3800204D3900204D35005E
:10014000204D3400204D3300204D3200204D310031
:10015000204D3000204739340020473933002047F4
:1001600039310020473930002047323100204732F2
:1001700030002047313900204731380020473137DF
:10018000002047005B473830005B4733005B473255
:10019000005B4731005B4730005D0D0A002C005BBF
:1001A0004739323A005D0D0A002C0033303A0032F4
:1001B000383A0035393A0035383A0035373A0035A3
:1001C000363A0035353A0035343A005B470020288E
:1001D000686F6D696E672070756C6C2D6F66662C2C
:1001E000206D6D290D0A002028686F6D696E6720EB
:1001F0006465626F756E63652C206D736563290D90
:100200000A2432323D002028686F6D696E672073C2
:1002100065656B2C206D6D2F6D696E290D0A24327A
:10022000313D002028686F6D696E672066656564E2
:100230002C206D6D2F6D696E290D0A2432303D0022
:10024000290D0A2431393D002028686F6D696E67D9
:100250002064697220696E76657274206D61736BBB
:100260002C20696E743A002028686F6D696E6720D3
:100270006379636C652C20626F6F6C290D0A2431E1
:10028000383D00202868617264206C696D69747360
:100290002C20626F6F6C290D0A2431373D00202815
:1002A000696E76657274207374657020656E616224
:1002B0006C652C20626F6F6C290D0A2431363D006D
:1002C00020286175746F2073746172742C20626FC2
:1002D0006F6C290D0A2431353D0020287265706F3E
:1002E000727420696E636865732C20626F6F6C296D
:1002F0000D0A2431343D0020286E2D646563696D3C
:10030000616C732C20696E74290D0A2431333D0011
:1003100020286E2D61726320636F72726563746949
:100320006F6E2C20696E74290D0A2431323D002035
:10033000286172632C206D6D2F7365676D656E7417
:10034000290D0A2431313D0020286A756E637469D5
:100350006F6E20646576696174696F6E2C206D6DB7
:10036000290D0A2431303D002028616363656C65E6
:10037000726174696F6E2C206D6D2F7365635E32D0
:10038000290D0A24393D00202873746570206964A2
:100390006C652064656C61792C206D736563290D33
:1003A0000A24383D00290D0A24373D0020287374A3
:1003B000657020706F727420696E76657274206D3E
:1003C00061736B2C20696E743A0020286465666145
:1003D000756C74207365656B2C206D6D2F6D696E67
:1003E000290D0A24363D00202864656661756C7409
:1003F00020666565642C206D6D2F6D696E290D0A70
:1004000024353D002028737465702070756C736509
:100410002C2075736563290D0A24343D0020287A49
:100420002C20737465702F6D6D290D0A24333D00E7
:100430002028792C20737465702F6D6D290D0A2486
:10044000323D002028782C20737465702F6D6D2943
:100450000D0A24313D0024303D00242420287669F3
:100460006577204772626C2073657474696E677378
:10047000290D0A24232028766965772023207061BE
:1004800072616D6574657273290D0A2447202876A0
:100490006965772070617273657220737461746529
:1004A000290D0A244E2028766965772073746172BD
:1004B00074757020626C6F636B73290D0A24783D2C
:1004C00076616C7565202873617665204772626C71
:1004D0002073657474696E67290D0A244E783D6C2B
:1004E000696E652028736176652073746172747516
:1004F0007020626C6F636B290D0A244320286368A7
:1005000065636B2067636F6465206D6F6465290D9B
:100510000A245820286B696C6C20616C61726D2014
:100520006C6F636B290D0A2448202872756E206851
:100530006F6D696E67206379636C65290D0A7E2093
:10054000286379636C65207374617274290D0A21C4
:1005500020286665656420686F6C64290D0A3F2059
:100560002863757272656E74207374617475732973
:100570000D0A6374726C2D7820287265736574207F
:100580004772626C290D0A000D0A4772626C2030B6
:100590002E3863205B27242720666F722068656CE5
:1005A000705D0D0A005D0D0A0044697361626C653F
:1005B0006400456E61626C65640043617574696FC7
:1005C0006E3A20556E6C6F636B6564002724482774
:1005D0007C2724582720746F20756E6C6F636B0026
:1005E000526573657420746F20636F6E74696E75E5
:1005F00065005B002E204D506F733F0D0A00416275
:100600006F727420647572696E67206379636C65BC
:100610000048617264206C696D697400414C4152FC
:100620004D3A20000D0A004C696E65206F766572A8
:10063000666C6F7700416C61726D206C6F636B004C
:1006400042757379206F7220717565756564004518
:100650004550524F4D2072656164206661696C2E71
:10066000205573696E672064656661756C747300EC
:1006700056616C7565203C203320757365630056A8
:10068000616C7565203C20302E30005365747469B0
:100690006E672064697361626C656400496E76619F
:1006A0006C69642073746174656D656E74004D6F60
:1006B00064616C2067726F75702076696F6C61740D
:1006C000696F6E00496E76616C696420726164695D
:1006D000757300556E737570706F727465642073F6
:1006E000746174656D656E740045787065637465DA
:1006F0006420636F6D6D616E64206C6574746572E7
:1007000000426164206E756D62657220666F726D65
:100710006174006572726F723A20006F6B0D0A008F
:1007200011241FBECFEFD8E0DEBFCDBF11E0A0E0A7
:10073000B1E0EAECFAE602C005900D92A030B107F4
:10074000D9F716E0A0E0B1E001C01D92A73FB107C4
:10075000E1F70E94AF030C9463350C9400000F93F3
:100760001F930E94F5110E94931C0E94081978940F
:1007700080E1ECEBF5E0DF011D928A95E9F781E07D
:100780008093BC058093BD0506E011E08091BC0517
:10079000882381F10E94B8120E945D200E941609F0
:1007A0000E94C2120E94B7110E94DD110E944929C5
:1007B0000E94F4180E94AD261092BC051092BE054E
:1007C0008091E40681FF02C01093CB059091BD0596
:1007D000913021F484FF02C00093BD058091BD05D6
:1007E000863021F482E00E94D12B04C01092BD0516
:1007F0000E94D7120E9431130E94C914C7CF4F9292
:100800005F926F927F928F92AF92BF92CF92DF9260
:10081000EF92FF920F931F93DF93CF9300D000D0FE
:10082000CDB7DEB769837A838B839C8329013A0134
:100830008091BD05873001F10E9431138091BC0584
:100840008823D1F40E948F208823B1F769817A81AF
:100850008B819C81A30192010E94A7208091BD05FC
:10086000882321F482E0ECEBF5E081838091CB05D5
:10087000882311F00E9436190F900F900F900F905F
:10088000CF91DF911F910F91FF90EF90DF90CF906C
:10089000BF90AF908F907F906F905F904F90089532
:1008A0002F923F924F925F926F927F928F929F9280
:1008B000AF92BF92CF92DF92EF92FF920F931F936E
:1008C000DF93CF93CDB7DEB7C254D0400FB6F894C4
:1008D000DEBF0FBECDBF3C017E8F6D8F2A01298FF9
:1008E000302E9E2CAAA2BBA2CCA2DDA28CA6022FE7
:1008F00010E0000F111F000F111F9A01200F311F70
:100900003EA72DA7D9018D919D910D90BC91A02D51
:100910008D879E87AF87B88BF301E00FF11FBC0175
:10092000CD0120813181428153810E946C3069ABBD
:100930007AAB8BAB9CABE32CFF24EE0CFF1CEE0CD4
:10094000FF1CF201EE0DFF1DF8ABEFA7A080B180F8
:10095000C280D380F301EE0DFF1DC601B5012081D9
:100960003181428153810E946C306DAB7EAB8FAB85
:1009700098AF892D90E0880F991F880F991FF30178
:10098000E80FF91F20813181428153812D8B3E8BED
:100990004F8B588F4D8D5E8D840F951FDC016D91AF
:1009A0007D918D919C912D893E894F89588D0E9412
:1009B0006B30862E772E582E9B8F2D853E854F854A
:1009C000588950582D873E874F87588BD601C501CF
:1009D000B0588EA39FA3A8A7B9A7ED8DFE8DE00FF9
:1009E000F11F6081718182819381B9A9AAA9FBA9B4
:1009F000ECA92B2F3A2F4F2F5E2F0E946B30A62E83
:100A0000672E482E292EED8DFE8DEE0DFF1D608187
:100A1000718182819381BDA9AEA9FFA9E8AD2B2F79
:100A20003A2F4F2F5E2F0E946B30F62E072F182F74
:100A3000E92E6D857E858F8598892F2D302F412F4A
:100A40005E2D0E941A34698B7A8B8B8B9C8B6EA1E6
:100A50007FA188A599A52A2D362D442D522D0E94BF
:100A60001A349B01AC0169897A898B899C890E941F
:100A70006B30698B7A8B8B8B9C8B6D857E858F859C
:100A800098892A2D362D442D522D0E941A345B014F
:100A90006C016EA17FA188A599A52F2D302F412F24
:100AA0005E2D0E941A349B01AC01C601B5010E9463
:100AB0006C309B01AC0169897A898B899C890E9481
:100AC000DF30F62E172FE82E092F6C968FAD6C971E
:100AD0008823B1F06F2D712F8E2D902F20E030E004
:100AE000A9010E94483387FD24C06F2D712F8E2DE0
:100AF000902F2BED3FE049EC50E40E946B3015C085
:100B00006F2D712F8E2D902F20E030E0A9010E94D3
:100B10004531181674F06F2D712F8E2D902F2BEDFF
:100B20003FE049EC50E40E946C30F62E172FE82E7F
:100B3000092F6F2D712F8E2D902F6B962CAD3DAD03
:100B40004EAD5FAD6B970E941A34EB8D282D372D7B
:100B5000452D5E2F0E9455335B016C0120E030E093
:100B6000A9010E944531882309F4FEC1C601B501DF
:100B70002091D8063091D9064091DA065091DB06D3
:100B80000E944C310E9422320E94B9317BA76AA791
:100B90009CA59923A1F080E090E00E94E5319B01A3
:100BA000AC01BAA1ABA1FCA1EDA16B2F7A2F8F2FC5
:100BB0009E2F0E941A346AA37BA38CA39DA3EAA54F
:100BC000FBA5BF0180E090E00E94E5315B016C0174
:100BD0006F2D712F8E2D902FA60195010E944C3103
:100BE000698B7F8F88A399A32B8D682D772D852DF9
:100BF000922FA60195010E944C316FAF21967FAFD5
:100C0000219722968FAF229723969FAF23975989DA
:100C10004F8D38A129A1652F742F832F922F20E0AB
:100C200030E040E05FE30E941A34B989AF8DF8A14B
:100C3000E9A12B2F3A2F4F2F5E2F0E941A349B01D0
:100C4000AC0160E070E080E89FE30E946B3069AF28
:100C50007AAF8BAF9CAFE92DF0E0EE0FFF1FEE0FE8
:100C6000FF1FCE010196E80FF91F2D893E894F899C
:100C7000588D2083318342835383662441E050E0C2
:100C80005C8F4B8FB98DAB2FB0E0AA0FBB1FAA0FA3
:100C9000BB1FA80FB91FBE8BAD8B232D30E0220FD9
:100CA000331F220F331F280F391F3A8F298FFEAFB2
:100CB000EDAF2EA03FA048A459A432C1262D332762
:100CC00027FD30958091F60690E0281739070CF043
:100CD0005BC06D857E858F859889B989AF8DF8A1B8
:100CE000E9A12B2F3A2F4F2F5E2F0E941A347B0140
:100CF0008C01C201B101B9ADAAADFBADECAD2B2F9A
:100D00003A2F4F2F5E2F0E941A349B01AC01C8016D
:100D1000B7010E946C30D62EA72E982E892E6D8595
:100D20007E858F859889B9ADAAADFBADECAD2B2F33
:100D30003A2F4F2F5E2F0E941A348B01F82EE92E86
:100D4000C201B101B989AF8DF8A1E9A12B2F3A2FCA
:100D50004F2F5E2F0E941A349B01AC01F701602FC8
:100D6000712F8F2F9E2F0E946B30262F372F482FE9
:100D7000592F2D873E874F87588B6394C4012D2CA4
:100D80003A2C492E582E6AC04B8D5C8DBA0180E0FA
:100D900090E00E94E531B989AF8DF8A1E9A12B2F30
:100DA0003A2F4F2F5E2F0E941A347B018C017F2D2A
:100DB000912F0E9449311B012C016E2D7F2D802F18
:100DC000912F0E949D345B016C01ADA5BEA5ED90F5
:100DD000FD900D911C9117FB109517F91095EFA53B
:100DE000F8A96080718082809380C801B701A20158
:100DF00091010E941A346D877E878F87988BC4017A
:100E0000B301A60195010E941A349B01AC016D85C6
:100E10007E858F8598890E946C30262F372F482F2A
:100E2000592F2D873E874F87588BC801B701A601E0
:100E300095010E941A347B018C01C401B301A20107
:100E400091010E941A349B01AC01C801B7010E94B4
:100E50006B30262E372E482E592E662459A94AA9C2
:100E60003BA92CA9652F742F832F922F2D853E85AA
:100E70004F8558890E946C30AD89BE896D937D93F2
:100E80008D939C9313975DA94EA93FA928AD652F1B
:100E9000742F832F922FA20191010E946C30E98D53
:100EA000FA8D6083718382839383ADADBEAD6D9106
:100EB0007D918D919C91BFAD2196AFAD21972296EA
:100EC000FFAD22972396EFAD23972B2F3A2F4F2F6D
:100ED0005E2F0E946C30EDADFEAD60837183828326
:100EE000938369817A818B819C812D813E814F81A1
:100EF0005885E984FA840B851C85EAA1FBA1ACA185
:100F0000BDA15F016D018CA40E94FF038091BC050F
:100F1000882351F52B8D3C8D2F5F3F4F3C8F2B8FBE
:100F20004B8D5C8D8AA59BA54817590708F4C6CE42
:100F3000AD8DBE8D6D917D918D919C911397149681
:100F40002D913D914D915C9117971896ED90FD90E4
:100F50000D911C911B97EAA1FBA1ACA1BDA15F0162
:100F60006D018CA40E94FF03CE5BDF4F0FB6F89497
:100F7000DEBF0FBECDBFCF91DF911F910F91FF90CC
:100F8000EF90DF90CF90BF90AF909F908F907F9029
:100F90006F905F904F903F902F900895EF92FF9247
:100FA0000F931F93CF93DF937B018C0120E030E000
:100FB00040EA51E40E941A340E9422320E94B93160
:100FC000EB010E949720C801B70120E030E04AE71A
:100FD00054E40E941A347B018C0182E390E0C89FA4
:100FE000B001C99F700DD89F700D112480E090E072
:100FF0000E94E5319B01AC01C801B7010E946B3032
:101000000E9422320E94B931DC01CB010E9462268B
:1010100010C00E94311321978091BC05882359F498
:101020008FEF90E7A2E081509040A040E1F700C030
:101030000000209771F7DF91CF911F910F91FF90E2
:10104000EF9008952F923F924F925F926F927F920E
:101050008F929F92AF92BF92CF92DF92EF92FF92C8
:101060000F931F9385E08093BD0580916B00817F76
:1010700080936B000E9498290E9431138091BC05D7
:10108000882309F070C08CE0EFEBF5E0DF011D92E2
:101090008A95E9F70E94AD261092BD058091E5067C
:1010A000982F85FF02C061E001C06FEF96FF03C07B
:1010B000DD24D39402C0DD24DA9487FF03C0CC245E
:1010C000C39402C0CC24CA94E090F006F090F106DC
:1010D0000091F2061091F306772767FD7095872F30
:1010E000972F0E94E731A80197010E941A341B0133
:1010F0002C016D2D772767FD7095872F972F0E9404
:10110000E731A80197010E941A343B014C016C2D74
:10111000772767FD7095872F972F0E94E731A801E9
:1011200097010E941A347B018C01A090EA06B090CE
:10113000EB06C090EC06D090ED06C201B101A4010F
:10114000930188240E94FF030E9436190E94972071
:101150000E94AD268091E40683FF05C080916B005C
:101160008E6080936B001F910F91FF90EF90DF9046
:10117000CF90BF90AF909F908F907F906F905F9037
:101180004F903F902F9008958091BE0584FD15C02B
:101190008091BE0580618093BE050E94B5110E94BA
:1011A000DB118091BD058350833038F48091BE05FA
:1011B00080628093BE050E94D31508952091CF05CB
:1011C000222331F023E333E34BEC51E40E941A3441
:1011D00008950F931F93CF93DF938C01FB01CA01F6
:1011E000E9012881420F511DDA012C91222399F047
:1011F000D8012C9321542A3110F082E00AC02881B2
:101200002F5F2883BE01AF010E94A925009731F40A
:1012100081E08093CC0520E030E002C021E030E0A6
:10122000C901DF91CF911F910F9108956CEC75E08A
:1012300085E3FB0111928A95E9F78091CF069091A1
:10124000D006A091D106B091D2068093D405909398
:10125000D505A093D605B093D70581E08093E60528
:1012600092E09093E7058093D00580E0635E7F4F26
:101270000E941C1B882319F48AE00E945B2B0895AE
:10128000AF92BF92CF92DF92EF92FF920F931F9394
:1012900059016A010E94E7312091C1063091C206CE
:1012A0004091C3065091C4060E944C316093D8050A
:1012B0007093D9058093DA059093DB05C601B501DB
:1012C0000E94E7312091C5063091C6064091C706BD
:1012D0005091C8060E944C316093DC057093DD0587
:1012E0008093DE059093DF05C801B7010E94E731C6
:1012F0002091C9063091CA064091CB065091CC0688
:101300000E944C316093E0057093E1058093E20503
:101310009093E3051F910F91FF90EF90DF90CF9096
:10132000BF90AF9008952F923F924F925F926F922D
:101330007F928F929F92AF92BF92CF92DF92EF9265
:10134000FF920F931F93DF93CF93CDB7DEB7C554B2
:10135000D0400FB6F894DEBF0FBECDBF25969FAF2D
:101360008EAF25978091BD05863009F4E1C71982BB
:101370008CE0FE013796DF01282F1D922A95E9F7B0
:10138000FE017396DF011D928A95E9F71092CC0554
:101390001FAA23961FAE23971DAE1CAE12E0212E6E
:1013A000312C2C0E3D1E3E010894611C711CB1E0D5
:1013B0004B2E512CA5E09A2EF3E0AF2EE4E0BE2E8A
:1013C00011E072E0872EC7C1CB80DC80ED80FE800B
:1013D000C701B6010E94E8340E94B431DC01CB01A0
:1013E0002A81273421F02D3409F0B5C143C18E3153
:1013F0009105C1F18F319105D4F48431910584F4C4
:10140000813191059CF58430910561F1853091051C
:101410001CF497FF29C034C08A30910589F522C099
:10142000863191054CF18C31910551F51BC08C35FD
:1014300091058CF48A359105DCF48C3391053CF4EC
:1014400086339105DCF485339105D1F40BC08035EA
:101450009105B1F409C08C35910521F08F359105C6
:101460007CF408C001E00DC002E00BC003E009C03D
:1014700004E007C006E005C007E003C009E001C0C2
:1014800000E08531910509F493C086319105A4F5FA
:101490008430910509F465C085309105A4F481304C
:1014A000910509F464C08230910524F4009709F491
:1014B0005BC02FC18230910509F45CC08330910577
:1014C00009F027C15AC08231910509F460C0833107
:1014D00091054CF48A30910509F41EC181319105C2
:1014E00009F017C14DC08331910509F457C084310B
:1014F000910509F00EC159C08035910509F492C0DB
:1015000081359105ACF48533910509F482C08633A9
:1015100091054CF48C31910509F44DC08E31910543
:1015200009F0F7C048C08C3391050CF0F2C076C0CA
:101530008C35910509F47FC08D3591054CF48A35C1
:10154000910509F472C08B35910509F0E2C070C0B5
:101550008D35910509F488C08E35910509F0D9C003
:1015600086C0B1E0BFABE0C01092CD05DDC01093E6
:10157000CD05DAC08092CD05D7C0A092CD05D4C0EC
:101580001092E5051093E6058092E705CDC08092A4
:10159000E5051092E6051093E705C6C01093E50532
:1015A0008092E6051092E705BFC01093CF05BCC03E
:1015B0001092CF05B9C0C701B60120E030E040E28B
:1015C00051E40E941A340E94E8340E94B431E1E0F0
:1015D00069317E0709F4A3C0F1E06A317F0734F472
:1015E00021E06831720709F094C00AC041E06C3212
:1015F000740749F051E06D32750709F08AC006C0E2
:1016000063E06FAB91C075E07FAB8EC086E08FABBF
:101610008BC091E023969FAF239786C0865380931B
:10162000E80582C0B092CD057FC01093D0057CC084
:101630001092D00579C0C701B60120E030E040E249
:1016400051E40E941A340E94E8340E94B431A3E0AD
:1016500068397A0731F0B3E069397B0709F059C07E
:1016600061C0E7E0EFAB60C01093CE055DC01092A3
:10167000CE055AC08630910534F48330910544F488
:1016800097FF04C007C08E31910521F405E003C027
:1016900008E001C000E08430910571F185309105CA
:1016A0008CF48130910509F43FC0823091051CF41F
:1016B0000097C9F02EC082309105C1F083309105AA
:1016C00041F517C088309105F1F08930910524F477
:1016D00085309105F1F414C089309105B9F08E314F
:1016E0009105B9F403C01093D1051EC08092D105B5
:1016F0001BC01093D20518C0FFEFF093D20514C0A1
:101700001092D20511C01093D3050EC01092D305CC
:101710000BC0A092CC0508C022E02FAB05C044E06E
:101720004FAB02C058E05FAB0023A9F0920102C0AA
:10173000220F331F0A95E2F78CAD9DAD82239323D0
:10174000009719F09092CC0506C06CAD7DAD622B70
:10175000732B7DAF6CAFC101BE016D5F7F4F2596CE
:101760004EAD5FAD259793010E94E908009709F0FF
:101770002BCE8091CC05882309F0DDC51982FF248A
:1017800080E090E0DC0188AF99AFAAAFBBAF5C010D
:101790006D011EAE1FAE90E821969FAF2197AFEB73
:1017A0002296AFAF2297EE2462E0262E312C2C0E2B
:1017B0003D1E2E010894411C511C16E00E2D3501D2
:1017C0004601DCC02A812F347CF42D340CF0D6C0C5
:1017D0002C340CF06CC029340CF04CC02634E9F0E9
:1017E000273409F0C8C0CAC0243509F488C025359B
:1017F00054F4223509F46AC023350CF072C0203548
:1018000009F0B9C05EC0293509F49DC02A3509F434
:10181000A6C0283509F0AFC08AC0AB80BC80CD809F
:10182000DE80C601B50120E030E0A9010E9445310B
:10183000181614F01093CC058091CE05882369F01A
:10184000C601B5010E94DE086EAF7FAF21968FAF53
:10185000219722969FAF229791C0C601B5010E94A1
:10186000DE086093D4057093D5058093D6059093D8
:10187000D70584C06B817C818D819E8126962FAF98
:1018800026970E94DE0826962FAD2697E22FFF2787
:10189000E7FDF095E954F040EE0FFF1FEE0FFF1F3C
:1018A000E40DF51D628B738B848B958B67C06B8108
:1018B0007C818D819E810E94E8340E94B931F62E90
:1018C0005DC06B807C808D809E8058C06B817C81E8
:1018D0008D819E810E94DE0868AF79AF8AAF9BAF91
:1018E0004DC06B817C818D819E8120E030E0A9011B
:1018F0000E94453187FF42C01093CC053FC0AB80AA
:10190000BC80CD80DE80C601B50120E030E0A901B9
:101910000E94453187FF02C01093CC05C601B50176
:101920000E94E8340E94B9316093E40527C06B81BE
:101930007C818D819E810E94DE086F8378878987F4
:101940009A8701601BC06B817C818D819E810E9482
:10195000DE086B877C878D879E8702600FC06B8156
:101960007C818D819E810E94DE086F87788B898BB8
:101970009A8B046003C0B3E0B093CC05C101BE01F3
:101980006D5F7F4F25964EAD5FAD259792010E940A
:10199000E908009709F016CFE02E64015301809109
:1019A000CC05882309F0C7C48091BD05873041F07C
:1019B0008091D2050E94BE118091D3050E94E3114F
:1019C000ECADFDADF1FF13C08E01015E1F4F8091A4
:1019D000E805B8010E941C1B882309F4ABC4A9EEDA
:1019E000B5E0F8018CE001900D928150E1F7FFA97C
:1019F000F43009F45FC1F53048F4F23041F1F330CE
:101A000008F0AFC0F13009F0ACC10EC02FA92630EC
:101A100009F450C1263008F4A4C0273009F455C198
:101A2000283009F09EC194C1C601B50120E030E024
:101A3000A9010E94453187FD4AC18091BD058730CB
:101A400009F48FC1C601B5010E94CE078AC1C60143
:101A5000B5010E94E8344F2D423011F0443131F489
:101A60000E94B4313B016730710520F083E0809320
:101A7000CC0576C1EE2021F46F2D623009F427C128
:101A80006114710421F008946108710803C060902A
:101A9000E8057724262C8E01015E1F4F862DB801A4
:101AA0000E941C1B882309F445C448ED842E45E0A0
:101AB000942E37E0A32EB12CAC0EBD1ECC24DD2419
:101AC0004E2C5524C2010C2C02C0959587950A9482
:101AD000E2F780FF20C07F2D743199F4D4016D911D
:101AE0007D918D919C91F5012081318142815381BD
:101AF0000E946B30D8016D937D938D939C931397C7
:101B00000AC0F50180819181A281B381F8018083AF
:101B10009183A283B3830894C11CD11C44E050E09C
:101B2000840E951EA40EB51E0C5F1F4F53E0C51604
:101B3000D10441F68E01015E1F4F822DB8010E9433
:101B40004E1A8091E80590E08615970509F008C1C6
:101B5000E9EEF5E0D8018CE00D9001928150E1F7BB
:101B6000FFC0EE2009F477C09090D0058E01095F88
:101B70001F4F28EDC22E25E0D22EAA24BB24FF241D
:101B8000C7010A2C02C0959587950A94E2F780FF59
:101B900033C09920F9F0D60151966D917D918D91C8
:101BA0009C9154975D962D913D914D915C919097AC
:101BB0000E946C309B01AC01F801608171818281CF
:101BC00093810E946C30D8016D937D938D939C938B
:101BD00013971CC0F8016081718182819381D601C5
:101BE0002D913D914D915C910E946C30F801608384
:101BF0007183828393830AC0F60180819181A281DF
:101C0000B381F80180839183A283B3830894A11CDC
:101C1000B11C0C5F1F4F44E050E0C40ED51E53E0D2
:101C2000A516B10409F0ACCF6F81788589859A85B6
:101C30002B853C854D855E85EF84F88809891A8956
:101C4000A090D306B090D406C090D506D090D6060A
:101C500088240E94FF03BE01655D7F4F8FA98530F8
:101C600011F487E001C086E00E941C1B882309F460
:101C700061C36BA57CA58DA59EA52FA538A949A9F3
:101C80005AA9EBA8FCA80DA91EA9A090D306B09054
:101C9000D406C090D506D090D60688240E94FF03B3
:101CA000A8EDB5E0FE01BB968CE001900D9281504D
:101CB000E1F756C09FA9963011F487E001C086E095
:101CC00068ED75E00E944E1A4CC0EE2021F486E0CB
:101CD0008093CC0546C008ED15E097E0A92EB12C05
:101CE000AC0EBD1ECC24DD24FF24C7010C2C02C089
:101CF000959587950A94E2F780FF1CC0D8016D91F5
:101D00007D918D919C91139751962D913D914D917F
:101D10005C9154970E946B30F501208131814281A2
:101D200053810E946B30D8015D966D937D938D93A6
:101D30009C9390970894C11CD11C0C5F1F4FE4E04A
:101D4000F0E0AE0EBF1EF3E0CF16D10471F608C06E
:101D50008CE0E5EFF5E0DF011D928A95E9F701C01F
:101D6000EE24BCADB2FD03C0EE2009F4CDC28091DB
:101D7000CE058823D1F05EAD4FAD21963FAD2197C2
:101D800022962FAD2297652F742F832F922F20E05C
:101D900030E0A9010E94453187FF07C08091CD0541
:101DA000843019F086E08093CC052396EFAD23971D
:101DB000EE2339F08091CD05823018F086E08093D3
:101DC000CC058091CC05882309F0B5C2F090D005F0
:101DD0008E01095F1F4F88EDC82E85E0D82EAA24FA
:101DE000BB248E2C9924C4010A2C02C0959587959A
:101DF0000A94E2F780FF38C02396FFAD2397FF23B4
:101E0000E9F5FF20F9F0D60151966D917D918D9104
:101E10009C9154975D962D913D914D915C91909739
:101E20000E946C309B01AC01F8016081718182815C
:101E300093810E946C30D8016D937D938D939C9318
:101E400013971CC0F8016081718182819381D60152
:101E50002D913D914D915C910E946C30F801608311
:101E60007183828393830AC0F60180819181A2816C
:101E7000B381F80180839183A283B3830894A11C6A
:101E8000B11C0C5F1F4F44E050E0C40ED51E53E060
:101E9000A516B10409F0A7CFC090CD056C2D643014
:101EA00048F4623008F057C0CC2061F0613009F08E
:101EB0001EC221C07C2D743009F019C2EE2009F435
:101EC00016C292C0EE2009F48FC06F817885898593
:101ED0009A852B853C854D855E85EF84F888098938
:101EE0001A89A090D306B090D406C090D506D090A1
:101EF000D60688242DC0EE2009F476C06F8178853F
:101F000089859A852B853C854D855E85EF84F8888B
:101F100009891A898090CE05882081F4A091D40582
:101F2000AEAFB091D505BFAFE091D6052196EFAF2A
:101F30002197F091D7052296FFAF2297EEADFFAD26
:101F40002196AFAD21972296BFAD22975F016D011B
:101F50000E94FF03CCC12091E70523962FAF239762
:101F600081E090E002C0880F991F2A95E2F78095E2
:101F70008E21D1F168AD79AD8AAD9BAD20E030E026
:101F8000A9010E944531882399F5E091E505F0E02B
:101F9000EE0FFF1FEE0FFF1F8E010F5F1F4FE00FB1
:101FA000F11F82889388A488B588C501B40120E018
:101FB00030E0A9010E944531882309F037C1E09142
:101FC000E605F0E0EE0FFF1FEE0FFF1FE00FF11F21
:101FD000628973898489958920E030E0A9010E9493
:101FE0004531882309F022C186E08093CC057FC16A
:101FF0002090E5053324D101AA0FBB1FAA0FBB1FF8
:102000008E010F5F1F4FA00FB11FF101EE0FFF1FD9
:10201000EE0FFF1FE852FA4F16966D917D918D914C
:102020009C91199720813181428153810E946B30AC
:10203000862E672E482ED92EA090E6054A2D50E018
:102040005DAF4CAFDA01AA0FBB1FAA0FBB1FA00FD9
:10205000B11FFA01EE0FFF1FEE0FFF1FE852FA4FFC
:1020600016966D917D918D919C911997208131816A
:10207000428153810E946B30962E772E582E9FAB53
:102080008CE0FE017396DF011D928A95E9F768AD39
:1020900079AD8AAD9BAD20E030E040E850E40E948D
:1020A0001A3428AD39AD4AAD5BAD0E941A347B01BC
:1020B0008C01682D762D842D9D2D282D362D442DB7
:1020C0005D2D0E941A349B01AC01C801B7010E942A
:1020D0006B307B018C012FA9692D772D852D922FD7
:1020E000292D372D452D592F0E941A349B01AC0103
:1020F000C801B7010E946B30E62E072F182FA92EBA
:1021000020E030E0A9010E94453187FF04C084E04F
:102110008093CC0510C16E2D702F812F9A2D0E94B7
:10212000A7347B018C01682D762D842D9D2DEFA980
:10213000292D372D452D5E2F0E9455339B01AC0173
:10214000C801B70190580E944C31E62EF72E082F97
:10215000192FBC2DB33021F417FB109517F91095EA
:1021600068AD79AD8AAD9BAD20E030E0A9010E9459
:10217000453187FF0DC017FB109517F9109548AD35
:1021800059AD6AAD7BAD705848AF59AF6AAF7BAF00
:102190005101AA0CBB1CAA0CBB1C1E010894211CDB
:1021A000311CA20CB31C2FA9692D772D852D922FE0
:1021B000A80197010E941A349B01AC01682D762D6D
:1021C000842D9D2D0E946B3020E030E040E05FE3E5
:1021D0000E941A34D50152966D937D938D939C93F2
:1021E0005597ACACBDACAA0CBB1CAA0CBB1CA20C7A
:1021F000B31C682D762D842D9D2DA80197010E947A
:102200001A349B01AC01EFA9692D772D852D9E2FE6
:102210000E946C3020E030E040E05FE30E941A341E
:10222000F501628B738B848B958B15C0E091E6056D
:10223000F0E0EE0FFF1FEE0FFF1FEC0FFD1F2389D5
:10224000348945895689C501B4010E94553368AF68
:1022500079AF8AAF9BAF81E0FC2DF23009F080E0CE
:102260002091E5050091E6058090CE05882081F457
:102270004091D4054EAF5091D5055FAF6091D60522
:1022800021966FAF21977091D70522967FAF229745
:1022900000D000D00F9248AD59AD6AAD7BADADB75F
:1022A000BEB711964D935D936D937C9314971596DD
:1022B0008C9388ED95E0BE01695F7F4FAE014D5E66
:1022C0005F4F2396EFAC2397AEADFFAD2196EFADF8
:1022D000219722963FAD2297AA2EBF2ECE2ED32E27
:1022E0000E9450040F900F900F900F900F908091CC
:1022F000CC05882301F5A8EDB5E0FE0137968CE00A
:1023000001900D928150E1F78091D105882369F009
:102310000E9497201092CB058091D105823019F44C
:102320000E94C40802C01092D1058091CC0503C060
:102330008CE001C08AE0CB5BDF4F0FB6F894DEBFC4
:102340000FBECDBFCF91DF911F910F91FF90EF9006
:10235000DF90CF90BF90AF909F908F907F906F90C5
:102360005F904F903F902F9008952C980895109271
:102370000001249A259A0E94B51108951F93182FE1
:10238000482F552747FD50952091000130E0421716
:10239000530779F00E949720112339F0111614F495
:1023A0002D9801C02D9A2C9A02C00E94B51110934D
:1023B00000011F91089543980895109201013B9ADE
:1023C0000E94DB1108951F93182F809101011817A7
:1023D00051F00E949720113011F4439A02C00E94DC
:1023E000DB11109301011F910895E0ECF0E0808172
:1023F0008D7F80831092C50087E68093C400E1EC56
:10240000F0E080818061808380818860808380812A
:10241000806880830895E09104019E2F9F5F90342F
:1024200039F405C02091BE0524FF02C0089590E054
:10243000209105019217B1F3F0E0EF57F94F808337
:10244000909304018091C10080628093C10008953F
:102450001F920F920FB60F9211248F939F93EF93B9
:10246000FF9380910501E82FF0E0EF57F94F90813D
:102470009093C6008F5F803409F480E0809305015B
:1024800090910401891729F48091C1008F7D809378
:10249000C100FF91EF919F918F910F900FBE0F9010
:1024A0001F9018959091030180910201891761F0A6
:1024B000E92FF0E0EF5FF94F80819F5F903809F4DA
:1024C00090E09093030108958FEF08951F920F926B
:1024D0000FB60F9211242F933F934F935F936F93F7
:1024E0007F938F939F93AF93BF93EF93FF938091CD
:1024F000C6008132A1F0823218F48831B9F413C0D9
:102500008F3319F08E3791F404C08091BE0581603D
:1025100003C08091BE0582608093BE0518C0809183
:10252000BE058860F9CF0E94C40811C0E091020185
:102530009E2F9F5F903809F490E02091030192173D
:1025400031F0F0E0EF5FF94F808390930201FF914B
:10255000EF91BF91AF919F918F917F916F915F911B
:102560004F913F912F910F900FBE0F901F90189594
:102570008091020180930301089510920601109248
:102580004D0108950E94BD120E94FB2B87B1887FE8
:1025900087B988B1876088B9ECE6F0E08081876010
:1025A0008083E8E6F0E080818260808308951F9355
:1025B00010E0812F67E071E00E94FE1A882311F479
:1025C0008AE00CC080910701882351F087E091E0F8
:1025D0000E94F22987E091E00E9493090E945B2B00
:1025E0001F5F123031F71F9108951F920F920FB69F
:1025F0000F9211242F933F934F935F936F937F9389
:102600008F939F93AF93BF93EF93FF9386B190E027
:102610008095909587709070009791F0309903C0E5
:102620000E94C4080DC0319904C08091BE05886025
:1026300005C0329905C08091BE0582608093BE05B9
:10264000FF91EF91BF91AF919F918F917F916F918A
:102650005F914F913F912F910F900FBE0F901F9060
:102660001895CF93DF938091BE05882309F458C055
:102670008091BE05C82FD0E0CE0180769070009783
:10268000F1F086E08093BD05CE0186FF10C08FEF8C
:102690000E94B62B81E00E94D12B8091BE058F7ED7
:1026A0008093BE058091BE0584FFFCCF03C08EEFF2
:1026B0000E94B62B8091BE058F798093BE05C4FF22
:1026C00004C081E08093BC052BC0C0FF07C00E94FE
:1026D000FA2E8091BE058E7F8093BE05C3FF07C092
:1026E0000E9440198091BE05877F8093BE05C2FF7E
:1026F00007C00E944A198091BE058B7F8093BE055A
:10270000C1FF0EC00E9436198091E40681FF03C00C
:1027100081E08093CB058091BE058D7F8093BE05BF
:10272000DF91CF910895EF92FF920F931F93DF9364
:10273000CF93CDB7DEB72A970FB6F894DEBF0FBEA2
:10274000CDBF8C01FC018081843209F006C181E09B
:1027500089838181873481F1883474F48432C1F0B3
:10276000853234F4882389F0833209F091C01AC08D
:10277000833409F08DC02AC08E3409F467C08835CF
:10278000F1F1883409F084C04CC00E94002CEEC0E6
:1027900082E08983F8018281882309F0EBC00E94DE
:1027A000052CE4C082E08983F8018281882309F046
:1027B000E1C00E945B2DDAC082E08983F80182814A
:1027C000882309F0D7C00E94152ED0C082E08983EB
:1027D000F8018281882309F0CDC08091BD05873042
:1027E00021F40E94C40885E007C0882309F0BCC01A
:1027F00087E08093BD0584E00E94D12BB7C082E0C2
:102800008983F8018281882309F0B4C08091BD05D5
:10281000863009F0ABC083E00E94D12B1092BD0539
:10282000A5C08091E40684FF9DC08091BD058823EA
:1028300019F0863009F098C00E9422088091BC05EA
:10284000882309F093C00E94D71290C082E0898348
:10285000F80182818823F1F4B8010E94FE1A8823CE
:1028600029F080E0B8010E94DC2E03C08AE00E94BB
:102870005B2B81E0B8010E94FE1A882329F081E0D9
:10288000B8010E94DC2E72C08AE00E945B2B6EC0F1
:1028900020E001C021E0C8017E010894E11CF11C88
:1028A000B701AE014E5F5F4F2A870E94A9252A8596
:1028B000009709F45DC08981F801E80FF11D90814E
:1028C0008F5F89839D3309F055C0222339F1282F6A
:1028D00090E0E22FF0E0D801AE0FBF1FE81BF90B2C
:1028E000E00FF11F3C9130832F5F3C91332389F738
:1028F0002983C8010E949309282F8823E1F56A8162
:102900007B818C819D812A870E94E8340E94B931A5
:10291000862FB8010E94431A2A852DC0C801B7012D
:10292000AE014A5F5F4F0E94A925009709F1898196
:10293000F801E80FF11D80818823E1F46A817B8131
:102940008C819D810E94B431DC01CB014E815F817D
:10295000688579850E94651B03C0C8010E949309A0
:10296000282F09C027E007C02BE005C020E003C0E6
:1029700021E001C023E0822F2A960FB6F894DEBF33
:102980000FBECDBFCF91DF911F910F91FF90EF90C0
:1029900008951F9311E047C08A3011F08D30B1F4D3
:1029A0000E9431138091BC05882309F041C0E09159
:1029B0000601EE2349F0F0E0E95FFE4F108287E068
:1029C00091E00E94931319C080E017C090914D01CF
:1029D000992329F0893239F510924D0124C08132B2
:1029E00010F18F3201F1883219F410934D011BC0A0
:1029F00090910601953430F08DE00E945B2B0E948F
:102A0000BD1211C0482F4156292F30E09F5F4A3137
:102A100020F4295F3E4F805202C0295F3E4FF901EA
:102A20008083909306010E9452128F3F09F0B4CF29
:102A30001F9108958091640190916501A0916601B4
:102A4000B0916701209168013091690140916A015C
:102A500050916B01820F931FA41FB51F80936801D3
:102A600090936901A0936A01B0936B01813022EECB
:102A7000920724E0A20720E0B20770F08050924E47
:102A8000A440B0408093680190936901A0936A01CB
:102A9000B0936B0181E0089580E008959B01AC0143
:102AA000203283E0380780E0480780E0580720F4B0
:102AB00020E233E040E050E060E070E788E399E333
:102AC0000E942635203080E0380781E0480780E00A
:102AD000580728F4C901A0E0B0E051E02DC0203033
:102AE00080E0380788E0480780E0580798F4E3E082
:102AF0005695479537952795EA95D1F7C901A0E0F6
:102B0000B0E073E0880F991FAA1FBB1F7A95D1F719
:102B100052E012C066E056954795379527956A951D
:102B2000D1F7C901A0E0B0E046E0880F991FAA1FC5
:102B3000BB1F4A95D1F753E040918100487F452B58
:102B40004093810030938900209388008093640132
:102B500090936501A0936601B093670108958091F9
:102B6000E40682FF02C0289A01C028988091BD0522
:102B70008330C1F48091D706809375018091CE0691
:102B800090E0A0E0B0E00297A109B109880F991F79
:102B9000AA1FBB1F81958093760180916F00826090
:102BA00080936F00089580916F008D7F80936F00F8
:102BB0008091F4068F3F21F49091BE0595FF0AC0E5
:102BC00090E00E9462268091E40682FF02C028986D
:102BD0000895289A08951F920F920FB60F9211240C
:102BE000EF92FF920F931F932F933F934F935F9317
:102BF0006F937F938F939F93AF93BF93CF93DF9305
:102C0000EF93FF9380917401882309F0BFC29BB1B9
:102C100020917501822F807E9F71892B8BB98BB19A
:102C2000837E822B8BB9809176018093B20082E003
:102C30008093B10081E080937401789480914E017B
:102C400090914F01009709F071C00E947620EC012D
:102C500090934F0180934E01009709F460C08091DA
:102C6000BD058330D1F46BA17CA18DA19EA16093A1
:102C70006C0170936D0180936E0190936F010E94BF
:102C80004E1580E091E7A2E0B0E080936801909358
:102C90006901A0936A01B0936B012BA53CA54DA5DA
:102CA0005EA5DA01C901B595A79597958795820F1D
:102CB000931FA41FB51F8093700190937101A0937F
:102CC0007201B09373012D853E854F855889DA01D5
:102CD000C901B595A79597958795B095A0959095BD
:102CE00081959F4FAF4FBF4FE0E5F1E080935001DA
:102CF00090935101A0935201B09353018483958323
:102D0000A683B78380879187A287B3872487358777
:102D100046875787108A118A128A138A07C00E9431
:102D2000D3158091BE0584608093BE05C0914E018D
:102D3000D0914F01209709F420C2688160937501FA
:102D40008091500190915101A0915201B091530195
:102D500029813A814B815C81820F931FA41FB51F8B
:102D60008093500190935101A0935201B09353016D
:102D7000181619061A061B0684F56460609375011F
:102D800020915C0130915D0140915E0150915F01A5
:102D9000821B930BA40BB50B8093500190935101B0
:102DA000A0935201B09353018091BF059091C0054B
:102DB000A091C105B091C20565FF04C00197A109AA
:102DC000B10903C00196A11DB11D8093BF05909369
:102DD000C005A093C105B093C205809154019091A4
:102DE0005501A0915601B09157012D813E814F812F
:102DF0005885820F931FA41FB51F80935401909391
:102E00005501A0935601B0935701181619061A06DA
:102E10001B0694F5609175016860609375012091BF
:102E20005C0130915D0140915E0150915F01821B18
:102E3000930BA40BB50B8093540190935501A09371
:102E40005601B09357018091C3059091C405A0919C
:102E5000C505B091C60566FF04C00197A109B10977
:102E600003C00196A11DB11D8093C3059093C405B5
:102E7000A093C505B093C605809158019091590162
:102E8000A0915A01B0915B0129853A854B855C85FB
:102E9000820F931FA41FB51F80935801909359016F
:102EA000A0935A01B0935B01181619061A061B0667
:102EB00094F56091750160616093750120915C01EA
:102EC00030915D0140915E0150915F01821B930B37
:102ED000A40BB50B8093580190935901A0935A010C
:102EE000B0935B018091C7059091C805A091C90579
:102EF000B091CA0567FF04C00197A109B10903C0D9
:102F00000196A11DB11D8093C7059093C805A0939C
:102F1000C905B093CA058091600190916101A091AB
:102F20006201B09163010196A11DB11D8093600102
:102F300090936101A0936201B09363012D853E855A
:102F40004F85588982179307A407B50708F00FC16A
:102F50002091BD05243039F50E941A15882309F403
:102F60000CC120916C0130916D0140916E01509126
:102F70006F018BA59CA5ADA5BEA582179307A407DD
:102F8000B50740F00E94D3158091BE058460809300
:102F9000BE05F3C079018A01E81AF90A0A0B1B0B76
:102FA000C801B701DBC02FA538A949A95AA98217C2
:102FB0009307A407B507C8F50E941A15882309F4DA
:102FC000DCC08BA59CA5ADA5BEA520916C01309160
:102FD0006D0140916E0150916F01820F931FA41FEC
:102FE000B51F80936C0190936D01A0936E01B09317
:102FF0006F012FA938AD49AD5AAD82179307A407C9
:10300000B50740F020936C0130936D0140936E0141
:1030100050936F0160916C0170916D0180916E0110
:1030200090916F010E944E15A8C02BA93CA94DA9F3
:103030005EA982179307A407B50708F47EC082171C
:103040009307A407B50779F520916C0130916D01C4
:1030500040916E0150916F018FA998ADA9ADBAADA5
:10306000281739074A075B0729F480E091E7A2E0B7
:10307000B0E010C080E092EEA4E0B0E020916801E2
:103080003091690140916A0150916B01821B930B51
:10309000A40BB50B8093680190936901A0936A011A
:1030A000B0936B016AC00E941A15882309F465C0A9
:1030B00080916C0190916D01A0916E01B0916F01B2
:1030C0002091700130917101409172015091730112
:1030D000281739074A075B0748F42BA53CA54DA5DF
:1030E0005EA5821B930BA40BB50B04C0B695A795E8
:1030F0009795879580936C0190936D01A0936E01D5
:10310000B0936F018FA198A5A9A5BAA520916C01D4
:1031100030916D0140916E0150916F012817390770
:103120004A075B0708F076CF80936C0190936D019E
:10313000A0936E01B0936F016DCF6FA978AD89AD8B
:103140009AAD20916C0130916D0140916E015091CA
:103150006F01261737074807590779F060936C010C
:1031600070936D0180936E0190936F015BCF10920D
:103170004F0110924E010E9467208091750190913D
:10318000D70689278093750110927401FF91EF9102
:10319000DF91CF91BF91AF919F918F917F916F916F
:1031A0005F914F913F912F911F910F91FF90EF9061
:1031B0000F900FBE0F901F9018951F920F920FB691
:1031C0000F9211248F939F939BB18091D7068C719E
:1031D000937E892B8BB91092B1009F918F910F90A4
:1031E0000FBE0F901F90189584E2E0E5F1E0DF013B
:1031F0001D928A95E9F760E273E080E090E00E941A
:103200004E1510924F0110924E01109274010895C4
:103210008AB18C6F8AB98BB183709091D706892B54
:103220008BB9209AE1E8F0E080818F7E80838081F5
:1032300088608083E0E8F0E080818D7F80838081FA
:103240008E7F808380818F73808380818F7C808359
:103250001092B0001092B100E0E7F0E08081816050
:1032600080830E94AF150E94D31508958091BD05FB
:10327000823029F483E08093BD050E94AF15089544
:103280008091BD05833029F484E08093BD051092C0
:10329000CB050895E0914E01F0914F013097B9F1BF
:1032A00065857685878590892091600130916101DF
:1032B0004091620150916301621B730B840B950B6B
:1032C0000E94542510926C0110926D0110926E01B3
:1032D00010926F0160E070E0CB010E944E1580E01B
:1032E00091E7A2E0B0E08093680190936901A09318
:1032F0006A01B0936B01109260011092610110920B
:1033000062011092630182E08093BD0508951092DE
:10331000BD050895F999FECF92BD81BD81E08FBBB7
:1033200080B50895F894F999FECF92BD81BD81E0F2
:103330008FBB40B54627842F992787FD9095262F70
:1033400030E082239323009739F06F3F19F060BD7E
:1033500084E006C084E104C0442321F060BD84E21F
:103360008FBBF99A789408958F929F92AF92BF92F3
:10337000CF92DF92EF92FF920F931F93DF93CF9341
:103380000F92CDB7DEB75C016B017A014A0120E0F4
:103390001BC0222341F4332727FD30952227330F0A
:1033A000221F332702C021E030E0F60161916F0156
:1033B000260F8C010F5F1F4F29830E9492190894DA
:1033C00081089108C80129818114910411F7C7016E
:1033D0008A0D9B1D622F0E9492190F90CF91DF9151
:1033E0001F910F91FF90EF90DF90CF90BF90AF9023
:1033F0009F908F9008959F92AF92BF92CF92DF924D
:10340000EF92FF920F931F93CF93DF936C01EB0129
:103410007A018A01CB0199241BC05C010894A11C8C
:10342000B11C0E948A19992049F4292D332727FDC0
:1034300030952227330F221F332702C021E030E0CE
:10344000982E920EF60181936F0101501040C50134
:103450000115110511F7C7018C0F9D1F0E948A19D4
:1034600021E030E0981611F020E030E0C901DF9152
:10347000CF911F910F91FF90EF90DF90CF90BF9071
:10348000AF909F90089597E4899FC00111248050C8
:103490009D4F46E450E00E94B41908959DE0899F35
:1034A000C001112480509E4F4CE050E00E94B4199E
:1034B000089580E090E065E00E94921981E090E03C
:1034C00061EC76E046E350E00E94B4190895882349
:1034D00009F45AC080E090E0AAE7B3E48093C10603
:1034E0009093C206A093C306B093C4068093C5060A
:1034F0009093C606A093C706B093C8068093C906EA
:103500009093CA06A093CB06B093CC062AE02093F2
:10351000CE068093CF069093D006A093D106B093A9
:10352000D20680E090E0AAEFB3E48093D3069093B4
:10353000D406A093D506B093D60680E090EAACE01E
:10354000B7E48093DC069093DD06A093DE06B0938B
:10355000DF068DEC9CECACECBDE38093D806909339
:10356000D906A093DA06B093DB0680EC8093D706E9
:103570008DEC9CECACE4BDE38093E0069093E10617
:10358000A093E206B093E30682E08093E4061092F3
:10359000E50680E090E0A8ECB1E48093E606909325
:1035A000E706A093E806B093E90680E090E0AAE77A
:1035B000B3E48093EA069093EB06A093EC06B093F5
:1035C000ED0684E690E09093EF068093EE0680E0AF
:1035D00090E0A0E8BFE38093F0069093F106A093FB
:1035E000F206B093F30689E18093F40693E090939A
:1035F000F5068093F6060E94591A08951F93CF93FB
:10360000DF93182FEB0167E4869FB001112460500F
:103610007D4FCE0146E450E00E94FB19009739F43B
:103620001882812FBE010E94431A80E001C081E010
:10363000DF91CF911F910895FF920F931F93F82E62
:103640008B012DE0829F9001112420503E4FCB0131
:10365000B9014CE050E00E94FB19009759F48CE04E
:10366000D8011D928A95E9F78F2DB8010E944E1A54
:1036700080E001C081E01F910F91FF90089580E0EC
:1036800090E00E948A19853061F481EC96E061E057
:1036900070E046E350E00E94FB1921E0009799F4A6
:1036A00011C0853078F481EC96E061E070E043E28F
:1036B00050E00E94FB19009729F080E00E94671AF1
:1036C00021E001C020E0822F0895EF92FF920F9336
:1036D0001F93CF93DF93EC017A018B018731910522
:1036E00008F015C1FC01EC5CFF4FEE0FFF1F0590C9
:1036F000F491E02D0994CB01BA0120E030E0A9015A
:103700000E94453118160CF004C1CC0FDD1FCC0F00
:10371000DD1FCF53D94FE882F9820A831B83F3C0A0
:10372000CB01BA0120E030E040E450E40E94453192
:1037300087FDF1C0C801B7010E947D340E94B931F4
:103740006093CE06E0C04093CF065093D0066093BE
:10375000D1067093D206D7C04093D3065093D406B7
:103760006093D5067093D606CEC0CB01BA010E94F5
:10377000E8340E94B9316093D706C5C0CB01BA01C5
:103780000E947D340E94B9316093F406BCC0CB0125
:10379000BA0120E030E040E752E40E941A3420E011
:1037A00030E040E752E40E941A346093DC067093E4
:1037B000DD068093DE069093DF06A5C0E89417F936
:1037C000E092E006F092E1060093E2061093E30631
:1037D0009AC04093D8065093D9066093DA06709346
:1037E000DB0691C0CB01BA010E947D340E94B93141
:1037F0006093F60688C0CB01BA010E947D340E9416
:10380000B9316093F5067FC0CB01BA0120E030E00A
:10381000A9010E9445319091E406882311F091603E
:103820000EC09E7F0CC0CB01BA0120E030E0A901A0
:103830000E9445319091E406882321F09260909394
:10384000E40661C09D7FFBCFCB01BA0120E030E0F0
:10385000A9010E9445319091E406882311F09460FB
:10386000EECF9B7FECCFCB01BA0120E030E0A90185
:103870000E9445319091E406882311F0986001C0C0
:10388000977F9093E4060E9449293DC0CB01BA017D
:1038900020E030E0A9010E9445319091E4068823A0
:1038A00011F09061CCCF9F7ECACFCB01BA010E94AC
:1038B000E8340E94B9316093E50625C04093E606DE
:1038C0005093E7066093E8067093E9061CC04093A6
:1038D000EA065093EB066093EC067093ED0613C076
:1038E000CB01BA010E947D340E94B9317093EF067A
:1038F0006093EE0608C04093F0065093F106609383
:10390000F2067093F3060E94591A80E005C086E023
:1039100003C088E001C089E0DF91CF911F910F9132
:10392000FF90EF900895FF920F931F93DF93CF9333
:10393000CDB7DEB72C970FB6F894DEBF0FBECDBF64
:103940000E943F1B882341F48AE00E945B2B81E0A8
:103950000E94671A0E94052CFF248E010F5F1F4FE3
:103960008F2DB8010E941C1B882319F48AE00E9445
:103970005B2BF3948F2D883099F72C960FB6F89423
:10398000DEBF0FBECDBFCF91DF911F910F91FF9092
:1039900008956F927F928F929F92AF92BF92CF9233
:1039A000DF92EF92FF920F931F935B016C01CA01AC
:1039B000B9010E941A343B014C01C601B501A601B0
:1039C00095010E946C30A80197010E941A349B0156
:1039D000AC01C401B3010E946B300E94A7341F9157
:1039E0000F91FF90EF90DF90CF90BF90AF909F909E
:1039F0008F907F906F9008952F923F924F925F9299
:103A00006F927F928F929F92AF92BF92CF92DF92EE
:103A1000EF92FF920F931F93DF93CF93CDB7DEB753
:103A200062970FB6F894DEBF0FBECDBF9A8B898B1D
:103A30005A016B0138014901FC0167A970AD81ADE4
:103A400092AD0E94E5317B018C01A60195010E9497
:103A50001A340E9432310E94B9315B016C01E9894C
:103A6000FA8963A374A385A396A3C801B701A4012F
:103A700093010E941A340E9432310E94B9311B0115
:103A80002C01E989FA8967A370A781A792A763A58A
:103A900074A585A596A522E330E040E050E00E94A1
:103AA00007350E94E73120E030E040E752E40E9411
:103AB0001A340E94B43169837A838B839C83C60154
:103AC000B5010E94E5315B016C0169817A818B81CE
:103AD0009C810E94E7316D837E838F839887C80124
:103AE000B701A80197010E941A34962E872E782ECE
:103AF000692EC601B501A60195010E941A34698795
:103B00007A878B879C876D817E818F8198859B01C9
:103B1000AC010E946C306D877E878F87988BA401E3
:103B20009301652F742F832F922FB985AA85EB847B
:103B3000AC842B2F3A2F4E2D5A2D0E946B30BD8511
:103B4000AE85EF84A8882B2F3A2F4E2D5A2D0E9438
:103B50004C310E9432310E94B431E62EF72E082FEC
:103B6000192FC201B1010E94E5319B01AC010E94F5
:103B70001A34262E572E482E392ED401F3012B2F1E
:103B80003A2F4F2F5E2F0E946B305B016C016981D1
:103B90007A818B819C8190958095709561957F4FFE
:103BA0008F4F9F4F0E94E7319B01AC010E946C3008
:103BB0009B01AC01C601B5010E944C310E9422322A
:103BC000E989FA89A584B684C784D088350146017D
:103BD0006E187F08800A910A0E94B431661A770A2B
:103BE000880A990A97FE49C0C601B5010E94E731CB
:103BF0009B01AC01BD85AE85EF8498886B2F7A2F31
:103C00008E2D992D0E941A34B985AA85EB849C8447
:103C10002B2F3A2F4E2D592D0E946B30222D352DF2
:103C2000442D532D0E946C307B018C016D817E816F
:103C30008F81988520E030E040E850E40E941A34FB
:103C40009B01AC01C801B7010E944C310E94323186
:103C50000E94B431E62EF72E082F192F17FF03C04C
:103C6000EE24FF248701AE14BF04C006D10614F46D
:103C700086017501662477244301E989FA89E7A65C
:103C8000F0AA01AB12AB6E0C7F1C801E911E63AAC2
:103C900074AA85AA96AA62960FB6F894DEBF0FBEE4
:103CA000CDBFCF91DF911F910F91FF90EF90DF90EB
:103CB000CF90BF90AF909F908F907F906F905F90CC
:103CC0004F903F902F9008954F925F926F927F9206
:103CD0008F929F92AF92BF92CF92DF92EF92FF921C
:103CE0000F931F93CF93DF93EC016B01009709F4BF
:103CF00057C08AA1882309F053C04D885E886F8819
:103D0000788CFB01B588A6889788808CC301B201A6
:103D1000D501F4012B2F3A2F4F2F5E2F0E944531F2
:103D200087FF3EC06091DC067091DD068091DE0663
:103D30009091DF069058ED8CFE8C0F8D18A1A30199
:103D400092010E94C91C8B017C01A5019401652F81
:103D5000742F832F922F202F312F4E2D5F2D0E94F5
:103D6000453187FF04C00B2D1A2DE92CF82CA50135
:103D70009401652F7A2D832F982D202F312F4E2DD2
:103D80005F2D0E944531882359F0802F912FAE2D51
:103D9000BF2DF601858B968BA78BB08F81E081A319
:103DA000DF91CF911F910F91FF90EF90DF90CF9017
:103DB000BF90AF909F908F907F906F905F904F904B
:103DC00008952F923F924F925F926F927F928F92BF
:103DD0009F92AF92BF92CF92DF92EF92FF920F939A
:103DE0001F93DF93CF93CDB7DEB727970FB6F89425
:103DF000DEBF0FBECDBFD0909E058091DC069091B6
:103E0000DD06A091DE06B091DF069C01AD015058A1
:103E100029833A834B835C8300E010E080E090E0EC
:103E2000992493949F838E837EC0DD2011F432E128
:103E3000D32EDA948D2D90E04BE350E0849F100157
:103E4000859F300C949F300C112488E791E0280E58
:103E5000391EEE81FF81309709F461C0011511050B
:103E600009F45DC0C18CB28CA38C848C6589768981
:103E70008789908D2C2D3B2D4A2D582D0E94453140
:103E8000882309F44CC0EE81FF8182A18823B1F51B
:103E9000F801458856886788708C6C2D7B2D8A2D9B
:103EA000982DA30192010E94483318163CF5EE812B
:103EB000FF81E58CF68C078D10A169817A818B8159
:103EC0009C81A30192010E94C91C162F072FF82E76
:103ED000E92E6C2D7B2D8A2D982DD801F7012B2FE3
:103EE0003A2F4F2F5E2F0E94453187FF04C01C2DB3
:103EF0000B2DFA2CE82CA801970104C05C2D4B2D4A
:103F00003A2D282D852F942FA32FB22FEE81FF81DC
:103F1000858B968BA78BB08FEE81FF8191A20E814E
:103F20001F813F822E8280917701D81609F07DCFC4
:103F30004091770160E070E080E090E02BE3E22EBA
:103F4000F12C6B0116C0242F30E02E9D80012F9D97
:103F5000100D3E9D100D112408581E4FB6014D83C3
:103F60000E94641E4D814F5F423109F440E0C6015A
:103F7000680120919E05421731F7B6010E94641E28
:103F8000F0907701222433248BE3482E512C4BC030
:103F90000F2D10E0049D6001059DD00C149DD00CE8
:103FA000112428E731E0C20ED31E21143104A9F1F7
:103FB000F10181A1882321F4F60181A1882369F10F
:103FC000F10181889288A388B48865897689878978
:103FD000908DA50194010E944C3169837A838B8373
:103FE0009C83049DF001059DF00D149DF00D11249E
:103FF000E858FE4F658976898789908DA5019401DF
:104000000E944C318B019C01C10149815A816B8115
:104010007C810E94FC1CF10111A2F394FF2DF2316E
:1040200009F4FF24160180919E05F81609F0B0CF1F
:10403000F101E188F2880389148965897689878985
:10404000908DA80197010E944C315B016C0160E0EA
:1040500070E0CB01A80197010E944C318B019C01BB
:10406000C101B601A5010E94FC1CF10111A2279615
:104070000FB6F894DEBF0FBECDBFCF91DF911F9179
:104080000F91FF90EF90DF90CF90BF90AF909F90F7
:104090008F907F906F905F904F903F902F900895FA
:1040A00080919E058093770180919E058F5F82317C
:1040B00009F480E08093BB0508950E9450208CE1B4
:1040C000EFE9F5E0DF011D928A95E9F708959091F7
:1040D0009E0580917701981741F0809177018F5F5D
:1040E000823109F480E080937701089590919E05D4
:1040F00080917701981779F04091770150E08BE338
:1041000090E0489F9001499F300D589F300D112439
:1041100028583E4F02C020E030E0C90108952091A8
:10412000770181E09091BB05291380E0089506C0D6
:104130000E9431138091BC05882341F40E947620AF
:104140000097B1F78091BD05833091F308952F92C8
:104150003F924F925F926F927F928F929F92AF9217
:10416000BF92CF92DF92EF92FF920F931F93DF9354
:10417000CF93CDB7DEB7AB970FB6F894DEBF0FBEC7
:10418000CDBF29013A01AFA2B8A6C9A6DAA68BA66F
:1041900020919E05822E99249A8289822091C106BF
:1041A0003091C2064091C3065091C4062B8F3C8FBC
:1041B0004D8F5E8F0E941A340E94EA336F8B788F86
:1041C000898F9A8F8091C5069091C606A091C706E7
:1041D000B091C8068B839C83AD83BE83C301B201BB
:1041E0002B813C814D815E810E941A340E94EA330A
:1041F0006F87788B898B9A8B8090C9069090CA06BE
:10420000A090CB06B090CC068F829886A986BA86FD
:10421000C801B701A50194010E941A340E94EA3333
:104220006B8B7C8B8D8B9E8B8BE390E0A980BA800F
:10423000A89EF001A99EF00DB89EF00D1124E8583B
:10424000FE4F108280919F059091A005A091A1053D
:10425000B091A205CF88D88CE98CFA8CC81AD90AFB
:10426000EA0AFB0A2091A3053091A4054091A50517
:104270005091A6056F85788989899A89621B730B8D
:10428000840B950B6C0D7D1D8E1D9F1D97FF02C02D
:10429000A0E2A0838F849888A988BA88C818D90812
:1042A000EA08FB08C20ED31EE41EF51EF7FE10C07E
:1042B0002BE330E0A980BA80A29EF001A39EF00D0E
:1042C000B29EF00D1124E858FE4F20812064208317
:1042D0008090A7059090A805A090A905B090AA0588
:1042E0002B893C894D895E89281539054A055B056E
:1042F00084F42BE330E049815A81429FF001439FCF
:10430000F00D529FF00D1124E858FE4F20812068D7
:1043100020832BE330E0A981BA81A29FF001A39F03
:10432000F00DB29FF00D1124E858FE4F9B01AC0137
:1043300097FF07C022273327A901261B370B480BFD
:10434000590B21833283438354832BE330E049812B
:104350005A81429FF001439FF00D529FF00D1124AE
:10436000E858FE4FA7019601F7FE07C02227332722
:10437000A9012C193D094E095F092583368347831E
:1043800050872B893C894D895E89281939094A094A
:104390005B092B873C874D875E8749015A0157FF90
:1043A00008C0B094A09490948094811C911CA11C8E
:1043B000B11C2BE330E049815A81429FF001439FB9
:1043C000F00D529FF00D1124E858FE4F8186928621
:1043D000A386B486458056806780708421813281AF
:1043E00043815481241535054605570510F4A30172
:1043F0009201281539054A055B0510F4A5019401C1
:10440000EBE3F0E0A981BA81AE9F5001AF9FB00C01
:10441000BE9FB00C1124E8E7F1E0AE0EBF1ED5013F
:104420001D962D933D934D935C9350972115310527
:104430004105510509F4FEC20E94E7312B8D3C8DE8
:104440004D8D5E8D0E944C316F8F78A389A39AA306
:10445000C701B6010E94E7312B813C814D815E810D
:104460000E944C31262E7B838BA39CA36B857C857D
:104470008D859E850E94E7312F81388549855A8533
:104480000E944C31362E7F838DA39EA35F8D48A161
:1044900039A12AA1652F742F832F922FDA01F901F8
:1044A0002B2F3A2F4F2F5E2F0E941A347B018C0145
:1044B0004B813BA12CA1622D742F832F922FF901E8
:1044C000222D342F4F2F5E2F0E941A349B01AC01F6
:1044D000C801B7010E946C307B018C014F813DA166
:1044E0002EA1632D742F832F922FF901232D342FAA
:1044F0004F2F5E2F0E941A349B01AC01C801B701F7
:104500000E946C300E94A7343B014C01F501658F7D
:10451000768F878F90A360E070E080E89FE3A4012E
:1045200093010E944C31B62E472EF82E592EFBA532
:10453000FF2359F46FA178A589A59AA52B2D342DB9
:104540004F2D552D0E941A340AC060E070E080E8BB
:104550009FE32FA138A549A55AA50E944C31E62E0C
:10456000A72E6C018BE390E029813A81289F80017E
:10457000299F100D389F100D112408581E4FA801B7
:104580004F5E5F4F5C8F4B8FC401B3012E2D3A2DD0
:104590004C2D5D2D0E941A34D80151966D937D9358
:1045A0008D939C9354971D966D917D918D919C91C7
:1045B00050970E94E7313B014C012E2D3A2D4C2D96
:1045C0005D2D0E941A340E9432310E94B931F801E7
:1045D00067AB70AF81AF92AF2091DC063091DD0602
:1045E0004091DE065091DF062B873C874D875E8722
:1045F000C401B3012B2D342D4F2D552D0E941A349B
:104600002B853C854D855E850E941A3420E030E87C
:104610004BE355E40E944C310E9432310E94B43188
:10462000D8019B966D937D938D939C939E975F8D00
:1046300048A139A12AA1652F742F832F922F2B2DEA
:10464000342D4F2D552D0E941A346F8F78A389A3D6
:104650009AA34B813BA12CA1622D742F832F922F03
:104660002B2D342D4F2D552D0E941A346B837BA397
:104670008CA39FA34F813DA12EA1632D742F832F67
:10468000922F2B2D342D4F2D552D0E941A34262E6E
:104690007F838DA39EA390919E05809177019817AB
:1046A00009F4DCC05090B7059090B8057090B9053A
:1046B0003090BA05652D792D872D932D20E030E0BF
:1046C000A9010E94483318160CF0C8C06091AB05D0
:1046D0007091AC058091AD059091AE059058BF8D5D
:1046E000A8A1F9A1EAA12B2F3A2F4F2F5E2F0E94EC
:1046F0001A346B017C015B814BA13CA12FA1652F7A
:10470000742F832F922F2091AF053091B0054091E7
:10471000B1055091B2050E941A349B01AC01C7014A
:10472000B6010E946B306B017C014F813DA12EA12F
:10473000622D742F832F922F2091B3053091B405F1
:104740004091B5055091B6050E941A349B01AC0109
:10475000C701B6010E946B30E62E872E682E492EC7
:1047600023E333E343E75FE30E94453187FF76C0ED
:10477000F801D188AB8DBC8D1196CC901197129613
:10478000BC9012971396AC90652D792D872D932DA3
:10479000D601F5012B2F3A2F4F2F5E2F0E94453166
:1047A00087FF04C0D52CC92CB72CA32C6E2D782DD7
:1047B000862D942D23E333E343E75FEB0E944833D8
:1047C00018160CF054C060E070E080E89FE32E2DD6
:1047D000382D462D542D0E946B3020E030E040E013
:1047E0005FE30E941A340E94A7347B018C016B8521
:1047F0007C858D859E852091E0063091E106409173
:10480000E2065091E3060E941A34A80197010E9423
:104810001A343B014C0160E070E080E89FE3A8019E
:1048200097010E946B309B01AC01C401B3010E944F
:104830004C310E94A734062FE72E882E692EA60140
:104840009501652F7C2D832F9A2D202F3E2D482DED
:10485000562D0E94453187FD0AC005C0DD24CC24B9
:10486000BB24AA2404C0D02ECE2CB82CA62C8BE3BB
:1048700090E089809A80889EF001899EF00D989E34
:10488000F00D1124E858FE4FA6019501852F9C2DAF
:10489000A32FBA2D818F928FA38FB48F6B857C85C8
:1048A0008D859E859058E58CF68C078D10A120E0B3
:1048B00030E0A9010E94C91CE62E872E682E492EE1
:1048C000A6019501652F7C2D832F9A2D2E2D382D35
:1048D000462D542D0E94453187FD04C0DE2CC82C86
:1048E000B62CA42C8BE390E029813A81289F80018B
:1048F000299F100D389F100D112408581E4FA60136
:104900009501852F9C2DA32FBA2DF801858B968BB1
:10491000A78BB08F61897289838994892E2D382D58
:10492000462D542D0E944531181634F081E0D801EF
:1049300092968C93929702C0F80112A28BE390E0BA
:1049400089809A80889EF001899EF00D989EF00DD6
:104950001124E858FE4F81E081A35F8D48A139A161
:104960002AA1852F942FA32FB22F8093AB0590936C
:10497000AC05A093AD05B093AE055B814BA13CA106
:104980002FA1852F942FA32FB22F8093AF05909343
:10499000B005A093B105B093B2054F813DA12EA102
:1049A000822D942FA32FB22F8093B3059093B4053B
:1049B000A093B505B093B60581899289A389B4897E
:1049C0008093B7059093B805A093B905B093BA0545
:1049D0008091BB0580939E0580919E058F5F8231FB
:1049E00009F480E08093BB052F89388D498D5A8D5D
:1049F00020939F053093A0054093A1055093A205F5
:104A00008F859889A989BA898093A3059093A40575
:104A1000A093A505B093A6058B889C88AD88BE8819
:104A20008092A7059092A805A092A905B092AA0528
:104A30000E94E11EAB960FB6F894DEBF0FBECDBF4D
:104A4000CF91DF911F910F91FF90EF90DF90CF906A
:104A5000BF90AF909F908F907F906F905F904F909E
:104A60003F902F900895EF92FF920F931F936093C2
:104A70009F057093A0058093A1059093A2052093B4
:104A8000A3053093A4054093A5055093A605E09295
:104A9000A705F092A8050093A9051093AA051F91F8
:104AA0000F91FF90EF900895AF92BF92CF92DF9257
:104AB000EF92FF920F931F93CF93DF937B018C01B3
:104AC0002091770130E08BE390E0289FE001299F5F
:104AD000D00D389FD00D1124C858DE4FC801B70142
:104AE0000E94E7312D8D3E8D4F8D58A10E941A34C2
:104AF0005B016C016D857E858F8598890E94E73109
:104B00009B01AC01C601B5010E944C316D8F7E8FB7
:104B10008F8F98A3ED86FE860F87188B80E090E03C
:104B2000DC018D8B9E8BAF8BB88F898F9A8FAB8F6B
:104B3000BC8F1AA281E089A30E94E11EDF91CF9170
:104B40001F910F91FF90EF90DF90CF90BF90AF90AB
:104B500008956F927F928F929F92AF92BF92CF9261
:104B6000DF92EF92FF920F931F93CF93DF933C015D
:104B70004B015A01FB018081F301E80FF11DEF01A8
:104B800029912D3221F42181219601E005C02B329B
:104B900011F42181219600E0F0E0E0E010E060E017
:104BA00070E0CB01A22FA053AA30F8F4EF5FE930F8
:104BB000C0F4F11111509B01AC01B2E0220F331F80
:104BC000441F551FBA95D1F7620F731F841F951F9D
:104BD000660F771F881F991F6A0F711D811D911D18
:104BE00009C0FF2339F41F5F05C0AE3F29F4FF233E
:104BF00019F4F1E02991D6CFEE2309F451C00E94B7
:104C0000E531C62ED72EE82EF92E20E030E0A9019E
:104C10000E944531882371F431C0C701B6012AE0F2
:104C200037ED43E25CE30E941A34C62ED72EE82EFD
:104C3000F92E1E5F1F3F8CF31F3F79F46C2D7D2DE5
:104C40008E2D9F2D2DEC3CEC4CEC5DE30E941A3434
:104C5000C62ED72EE82EF92E11C0112379F0C701E8
:104C6000B60120E030E040E251E40E941A34C62E42
:104C7000D72EE82EF92E115011168CF3002321F0B7
:104C8000F7FAF094F7F8F094F501C082D182E2824D
:104C9000F38260946C0EF401608221E030E002C087
:104CA00020E030E0C901DF91CF911F910F91FF907B
:104CB000EF90DF90CF90BF90AF909F908F907F90BC
:104CC0006F90089507C0EFE9FFE03197F1F700C05A
:104CD000000001970097B9F7089539C06A3071054F
:104CE0008105910548F425E02A95F1F7000061500F
:104CF0007040804090402BC064367105810591055D
:104D000048F4E5E3EA95F1F700006A50704080400E
:104D100090401DC0683EF3E07F07F0E08F07F0E0B1
:104D20009F0758F4EFE8F1E03197F1F700C0000079
:104D300064567040804090400AC0EFE9FFE0319730
:104D4000F1F700C00000685E73408040904061153C
:104D500071058105910511F60895EF92FF920F9369
:104D60001F936091BF057091C0058091C10590911E
:104D7000C2052091C3053091C4054091C5055091ED
:104D8000C605E090C705F090C8050091C9051091CF
:104D9000CA050E9433256091BF057091C0058091BE
:104DA000C1059091C2052091C3053091C405409181
:104DB000C5055091C605E090C705F090C805009163
:104DC000C9051091CA050E9440091F910F91FF90DB
:104DD000EF9008952F923F924F925F926F927F9241
:104DE0008F929F92AF92BF92CF92DF92EF92FF92FB
:104DF0000F931F93DF93CF93CDB7DEB7AB970FB66B
:104E0000F894DEBF0FBECDBF882EC62E49A70D87F2
:104E10001E872F87388BFE0131968CE0DF011D92B3
:104E20008A95E9F7E82C80FE10C06091C106709168
:104E3000C2068091C3069091C4060E94EA3369833A
:104E40007A838B839C8311E001C010E0E1FE0FC0E8
:104E50001F5F6091C5067091C6068091C70690914C
:104E6000C8060E94EA336D837E838F839887E2FEB3
:104E70000FC01F5F6091C9067091CA068091CB0672
:104E80009091CC060E94EA3369877A878B879C874A
:104E900089859A85AB85BC852D813E814F8158855A
:104EA000281739074A075B0710F49C01AD01898177
:104EB0009A81AB81BC81298B3A8B4B8B5C8B2817F9
:104EC00039074A075B0720F4898B9A8BAB8BBC8B25
:104ED000612F70E080E090E00E94E5310E94A734ED
:104EE0007B018C0169897A898B899C890E94E531D3
:104EF000A80197010E944C31A62E972E482ED92E3C
:104F00002091DC063091DD064091DE065091DF06EF
:104F10000E941A3420E030E84BE355E40E944C3103
:104F20000E9432310E94B9316D8F7E8F8F8F98A38E
:104F30006D857E858F859889A80197010E941A3416
:104F40009B01AC016A2D792D842D9D2D0E941A3470
:104F50009B01AC0160EC71EE84E69CE40E944C3154
:104F60000E94EA336D877E878F87988B2D853E85DB
:104F70004F855889283F64E2360761E0460760E0C4
:104F8000560740F038EF432E34E2532E31E0632EC3
:104F9000712C04C04D845E846F8478889090E506FF
:104FA00070EE97228091D7069826CC2011F480EEDF
:104FB0009826E988FA880B891C8916950795F79435
:104FC000E79410950095F094E094E11CF11C011D0C
:104FD000111D8091CE06A3019201281B31094109C0
:104FE00051092DA33EA34FA358A7ED8AFE8A0F8B2C
:104FF000188F5701680140E157E260E070E0498F87
:105000005A8F6B8F7C8F19A21AA21BA21CA29EE042
:10501000392E88E0282E84E08925582F50625AA71F
:105020008F7D8BA723B169A561112325482D50E001
:1050300080FE0BC021FF09C089819A81AB81BC81B0
:10504000E80EF91E0A1F1B1F03C0EE24FF24870170
:1050500041FF0BC022FF09C08D819E81AF81B885C1
:10506000A80EB91ECA1EDB1E03C0AA24BB246501FC
:10507000CA0183709070009709F44CC0D601C50135
:105080008E0D9F1DA01FB11F0097A105B10549F00E
:10509000181619061A061B0614F43BA503C03AA5F8
:1050A00001C0392DEA14FB040C051D0579F03225E9
:1050B000D801C7018A199B09AC09BD091816190640
:1050C0001A061B0614F43F7B01C030621E141F0435
:1050D0001006110644F489899A89AB89BC89E81ABB
:1050E000F90A0A0B1B0B1A141B041C041D0444F4BC
:1050F00049895A896B897C89A41AB50AC60AD70AD4
:10510000822F21FD02C05EEF852282FD04C06DEF7B
:10511000862201C0392D82FE2CC089859A85AB85F7
:10512000BC854D895E896F89788D480F591F6A1F2C
:105130007B1F4D8B5E8B6F8B788F141615061606B2
:105140001706D4F423FF03C050E1352702C06BEFEC
:1051500086228D899E89AF89B88D49895A896B8944
:105160007C89841B950BA60BB70B8D8B9E8BAF8B0D
:10517000B88F882009F474C08091BE0584FD70C08A
:105180008BB13C71837E382B3BB96091CE0670E0C9
:1051900080E090E00E946D269BB86DA17EA18FA15A
:1051A00098A50E946D266D857E858F8598896415EA
:1051B00075058605970508F035CF898D9A8DAB8DDD
:1051C000BC8D840D951DA61DB71D898F9A8FAB8F41
:1051D000BC8F81322EE4920720E0A20720E0B207C4
:1051E00008F420CF80529E44A040B040898F9A8F0F
:1051F000AB8FBC8F49A15AA16BA17CA18D8D9E8DD7
:10520000AF8DB8A1480F591F6A1F7B1F49A35AA32E
:105210006BA37CA360E077E883E993E029A13AA13E
:105220004BA15CA10E942635422E532E642E752E72
:105230002D853E854F8558894216530664067506AE
:1052400010F429013A018091CE06B301A201481B56
:105250005109610971094DA35EA36FA378A7E2CE3E
:10526000AB960FB6F894DEBF0FBECDBFCF91DF91E6
:105270001F910F91FF90EF90DF90CF90BF90AF9074
:105280009F908F907F906F905F904F903F902F9066
:10529000089584B1817F84B985B18E6085B980918C
:1052A000E40683FF09C080916B008E6080936B00E1
:1052B00080916800816008C080916B00817F80933D
:1052C0006B00809168008E7F8093680008951F9224
:1052D0000F920FB60F9211242F933F934F935F932A
:1052E0006F937F938F939F93AF93BF93EF93FF93AE
:1052F0008091BD05863059F08091BE0585FD07C0BF
:105300000E94C4088091BE0580648093BE05FF9111
:10531000EF91BF91AF919F918F917F916F915F912D
:105320004F913F912F910F900FBE0F901F901895A6
:10533000FF920F931F930E94AF150091EA06109100
:10534000EB062091EC063091ED0684E061E040E050
:105350000E94EA260091EA061091EB062091EC06E5
:105360003091ED0683E061E040E00E94EA26809102
:10537000EE069091EF060E94622642E0F42EFA9427
:105380000091E6061091E7062091E8063091E906C3
:1053900087E060E041E00E94EA268091EE0690916D
:1053A000EF060E9462268F2D8130A1F40091E6065F
:1053B0001091E7062091E8063091E90687E061E068
:1053C00040E00E94EA268091EE069091EF060E944E
:1053D0006226D5CFFF2099F60E94D3151F910F9119
:1053E000FF900895EF92FF92CF93DF93E82EE701AD
:1053F0007E01F92EE70102C00E940B1289918823D9
:10540000D9F7DF91CF91FF90EF900895CF93DF937D
:10541000EC0102C00E940B12FE01219684918823A8
:10542000C9F7DF91CF910895EF92FF920F931F93E9
:10543000DF93CF93CDB7DEB728970FB6F894DEBFD2
:105440000FBECDBFFE0131967F019E01275F3F4F0A
:10545000982F917091938695E217F307C9F78E0103
:10546000075F1F4FF80182918F01805D0E940B1230
:105470000E151F05B9F728960FB6F894DEBF0FBEBC
:10548000CDBFCF91DF911F910F91FF90EF900895C5
:105490008F929F92AF92BF92CF92DF92EF92FF9244
:1054A0001F93DF93CF93CDB7DEB72A970FB6F8944B
:1054B000DEBF0FBECDBF6B017C0197FF0BC08DE23D
:1054C0000E940B12F094E094D094C094C11CD11CA3
:1054D000E11CF11CC701B601C114D104E104F104BF
:1054E00021F480E30E940B1226C010E04E010894C4
:1054F000811C911C2AE0C22ED12CE12CF12C5401EC
:10550000A10EB11CA70196010E942635605DF50130
:1055100060831F5FB901CA0161157105810591059D
:1055200071F707C0FE01E10FF11D80810E940B128F
:1055300011501123B9F72A960FB6F894DEBF0FBEAB
:10554000CDBFCF91DF911F91FF90EF90DF90CF9073
:10555000BF90AF909F908F9008956F927F928F929F
:105560009F92AF92BF92CF92DF92EF92FF920F93F2
:105570001F93DF93CF93CDB7DEB72A970FB6F8947A
:10558000DEBF0FBECDBF7B018C0120E030E0A90162
:105590000E94453187FF07C08DE20E940B1217FB66
:1055A000109517F91095D090F506CD2C0EC0C801B6
:1055B000B70120E030E048EC52E40E941A34E62EB5
:1055C000F72E082F192F8EEFC80EEC2DE23078F74A
:1055D000D0FE0EC06E2D7F2D802F912F20E030E069
:1055E00040E251E40E941A34E62EF72E082F192FBC
:1055F000C801B70120E030E040E05FE30E946C307A
:105600000E94B4313E010894611C711CF301ED0D40
:10561000F11D2EE2208310E03AE0832E912CA12C84
:10562000B12C10C01D1509F41F5F7301E10EF11CB0
:10563000A50194010E942635605DF70160831F5F1C
:10564000B901CA01611571058105910559F706C0B7
:10565000FC01E10FF11D20831F5F03C0CE01019605
:1056600020E31D15A8F31D1579F41F5FFE01E10F5E
:10567000F11D80E381831F5F07C0FE01E10FF11D73
:1056800080810E940B1211501123B9F72A960FB690
:10569000F894DEBF0FBECDBFCF91DF911F910F9168
:1056A000FF90EF90DF90CF90BF90AF909F908F9042
:1056B0007F906F9008951F93182F882319F48BE122
:1056C00097E050C083E197E00E94062A173091F1DD
:1056D000183070F4133011F1143028F41130C1F087
:1056E0001230F1F518C01530F9F0163000F519C078
:1056F0001A3049F11B3028F41830F9F0193081F5CF
:105700001FC01C3031F11C3008F11D3049F524C098
:1057100081E097E023C089EE96E020C083ED96E01B
:105720001DC084EC96E01AC08EEA96E017C08CE9A2
:1057300096E014C08BE896E011C08FE796E00EC0AB
:1057400080E796E00BC08FE496E008C080E496E026
:1057500005C085E396E002C087E296E00E94062A33
:1057600084E296E00E94062A1F9108951F93182F45
:105770008CE196E00E94062A1E3F29F01F3F39F473
:1057800081E196E002C08EEF95E00E94062A84EF48
:1057900095E00E94062A84EF91E00E9462261F9104
:1057A00008951F93182F82EF95E00E94062A133068
:1057B00091F0143028F4113041F01230B1F408C0E7
:1057C000143061F0153089F40CC080EE95E00BC008
:1057D0008CEC95E008C08AEB95E005C082EB95E083
:1057E00002C089EA95E00E94062A85EA95E00E94B7
:1057F000062A1F91089588E895E00E94062A0895D8
:105800008AE594E00E94062A089586E594E00E94C5
:10581000062A6091C1067091C2068091C3069091DC
:10582000C4060E94AD2A83E494E00E94062A609197
:10583000C5067091C6068091C7069091C8060E9461
:10584000AD2A80E394E00E94062A6091C906709117
:10585000CA068091CB069091CC060E94AD2A8DE1BC
:1058600094E00E94062A6091CE0670E080E090E00D
:105870000E94482A84E094E00E94062A6091CF06A4
:105880007091D0068091D1069091D2060E94AD2AE7
:1058900087EE93E00E94062A6091D3067091D406A9
:1058A0008091D5069091D6060E94AD2A8AEC93E0AD
:1058B0000E94062A6091D70670E080E090E00E9486
:1058C000482A8CEA93E00E94062A8091D7060E941B
:1058D000142A85EA93E00E94062A6091F40670E09B
:1058E00080E090E00E94482A87E893E00E94062A20
:1058F0006091DC067091DD068091DE069091DF06F6
:1059000020E030E041E655E40E944C310E94AD2A8F
:1059100088E693E00E94062A6091E0067091E10615
:105920008091E2069091E3060E94AD2A88E493E01C
:105930000E94062A6091D8067091D9068091DA06F5
:105940009091DB060E94AD2A8FE293E00E94062A26
:105950006091F60670E080E090E00E94482A80E1C5
:1059600093E00E94062A6091F50670E080E090E0E6
:105970000E94482A87EF92E00E94062A6091E4067E
:1059800070E080E090E061707070807090700E94B4
:10599000482A8AED92E00E94062A2091E40661E0FE
:1059A00070E080E090E021FD03C060E070E0CB019A
:1059B0000E94482A80EC92E00E94062A2091E40688
:1059C00061E070E080E090E022FD03C060E070E004
:1059D000CB010E94482A8EE992E00E94062A20917B
:1059E000E40661E070E080E090E023FD03C060E049
:1059F00070E0CB010E94482A83E892E00E94062AC8
:105A00002091E40661E070E080E090E024FD03C0B6
:105A100060E070E0CB010E94482A87E692E00E9495
:105A2000062A6091E50670E080E090E00E94482A36
:105A300088E492E00E94062A8091E5060E94142ADA
:105A400080E492E00E94062A6091E6067091E706E3
:105A50008091E8069091E9060E94AD2A83E292E0E7
:105A60000E94062A6091EA067091EB068091EC068E
:105A70009091ED060E94AD2A86E092E00E94062AEF
:105A80006091EE067091EF0680E090E00E94482A57
:105A900087EE91E00E94062A6091F0067091F1066F
:105AA0008091F2069091F3060E94AD2A8EEC91E06F
:105AB0000E94062A0895CF92DF92EF92FF920F93F1
:105AC0001F93DF93CF93CDB7DEB72C970FB6F89423
:105AD000DEBF0FBECDBFFF246E010894C11CD11CD8
